:100000000C943C000C942B050C9493020C942B053F
:100010000C94DE030C94B5030C948C030C946303D2
:100020000C943A030C9411030C94E8020C94BF0254
:100030000C942B050C94C0010C942B050C947E01A0
:100040000C942B050C942B050C942B050C942B0570
:100050000C942B050060008080008000A6000A64DC
:1000600000A600B38000B300B7000A8A00B700BB47
:100070008000BB00BC000A8E11241FBECFE5D8E073
:10008000DEBFCDBFE4E5F0E040E017C0B591A5913B
:1000900035912591059107FD0CC095918591EF0152
:1000A000F92FE82F05900D92A217B307D9F7FE019B
:1000B00004C01D92A217B307E1F7E837F40731F740
:0C00C0000E9407040C940D05F894FFCF7B
:1000CC002F923F924F926F927F928F92CF92DF92AC
:1000DC00EF9261157105810509F460C06B01E82E82
:1000EC000E94CE048E2DB6016F5F7F4F8F4F0E9402
:1000FC00CE0436018E2C82E0680E711C811C160118
:10010C004E2C96E0290E311C411C882DB3010E9407
:10011C00CE048FEF681A780A880A62147304840478
:10012C00A1F787E893E10197F1F700C0000048E3DD
:10013C008E2DB6010E94330281EE94E00197F1F707
:10014C0000C0000048E38E2DB6010E94330292E3FA
:10015C009A95F1F748E38E2DB6010E94330241E0E7
:10016C008E2DB6010E94330242E08E2DB6010E9404
:10017C00330246E08E2DB6010E9433024CE08E2DE8
:10018C00B6010E94330248E28E2DB6010E94330262
:10019C0040E88E2DB6010E94330201C080E0EF9042
:1001AC00DF90CF908F907F906F904F903F902F90DB
:0201BC000895A4
:1001BE00A82FCB010097A10509F449C0FC01249199
:1001CE00A7FD20812695269526952770FC01349152
:1001DE00A7FD308136FB442740F936FF03C041307E
:1001EE00D9F037C0FC018491A7FD80818770E82F7C
:1001FE00F0E0EE0FFF1FE856FF4F0190F081E02D6B
:10020E00308181E090E002C0880F991F2A95E2F7B5
:10021E00832B808381E00895FC018491A7FD80816A
:10022E008770E82FF0E0EE0FFF1FE856FF4F0190AA
:10023E00F081E02D308181E090E002C0880F991F9F
:10024E002A95E2F780958323808381E0089580E0EC
:06025E00089580E0089500
:10026400A82FCB010097A10509F442C0FC012491F9
:10027400A7FD20812695269526952770442319F0FD
:100284004130E1F037C0FC018491A7FD8081877083
:10029400E82FF0E0EE0FFF1FE057FF4F0190F081D1
:1002A400E02D308181E090E002C0880F991F2A95EB
:1002B400E2F780958323808381E00895FC01849193
:1002C400A7FD80818770E82FF0E0EE0FFF1FE05755
:1002D400FF4F0190F081E02D308181E090E002C079
:1002E400880F991F2A95E2F7832B808381E0089574
:0802F40080E0089580E0089508
:1002FC001F920F920FB60F9211242F933F934F938F
:10030C005F936F937F938F939F93AF93BF93EF9371
:10031C00FF932091B8002F5F2093B8008091AC0020
:10032C009091AD00A091AE00820F911DA11DFC011A
:10033C008491A7FD808181110BC01092B80010929E
:10034C00B700E091AF00F091B0000995569801C04C
:10035C008CB9FF91EF91BF91AF919F918F917F914C
:10036C006F915F914F913F912F910F900FBE0F9016
:04037C001F90189521
:100380001F920F920FB60F9211242F933F934F930A
:100390005F936F937F938F939F93AF93BF93EF93ED
:1003A000FF938091B8009CB1E091B100F091B20050
:1003B000E80FF11D90838F5F8093B8009091B90092
:1003C00089130AC01092B8001092B700E091AF00F4
:1003D000F091B00009955798FF91EF91BF91AF91BF
:1003E0009F918F917F916F915F914F913F912F914D
:0A03F0000F900FBE0F901F9018959C
:1003FA00CF92DF92EF92CF93DF936B01E82EC42F57
:10040A0041706E5F7F4F8F4F0E943201D82FC1FB20
:10041A00442740F98E2DB6016D5F7F4F8F4F0E94A2
:10042A003201D823C2FB442740F98E2DB6016C5FF6
:10043A007F4F8F4F0E943201D823C3FB442740F9D4
:10044A008E2DB6016B5F7F4F8F4F0E9432018D2335
:0C045A00DF91CF91EF90DF90CF900895DC
:10046600CF92DF92EF92CF93DF93611571058105ED
:1004760001F1D42F6B01E82E40E00E943201C82F13
:100486004D2F42954F708E2DB6010E94FD01C82357
:100496008E2DB6010E949204C8234D2F8E2DB601D3
:1004A6000E94FD01C8238E2DB6010E9492048C2362
:1004B60001C080E0DF91CF91EF90DF90CF9008955B
:1004C600CF92DF92EF92CF93DF936115710581058D
:1004D60001F1D42F6B01E82E41E00E943201C82FB2
:1004E6004D2F42954F708E2DB6010E94FD01C823F7
:1004F6008E2DB6010E949204C8234D2F8E2DB60173
:100506000E94FD01C8238E2DB6010E9492048C2301
:1005160001C080E0DF91CF91EF90DF90CF900895FA
:100526001F920F920FB60F9211242F933F934F9362
:100536005F936F937F938F939F93AF93BF93EF9345
:10054600FF93E091A600F091A700309721F009955E
:1005560086E00E940205FF91EF91BF91AF919F91B6
:100566008F917F916F915F914F913F912F910F9056
:080576000FBE0F901F901895B5
:10057E001F920F920FB60F9211242F933F934F930A
:10058E005F936F937F938F939F93AF93BF93EF93ED
:10059E00FF93E0917600F0917700309709F009957E
:1005AE00FF91EF91BF91AF919F918F917F916F913D
:1005BE005F914F913F912F910F900FBE0F901F9013
:0205CE0018957E
:1005D0001F920F920FB60F9211242F933F934F93B8
:1005E0005F936F937F938F939F93AF93BF93EF939B
:1005F000FF93E0917400F0917500309709F0099530
:10060000FF91EF91BF91AF919F918F917F916F91EA
:100610005F914F913F912F910F900FBE0F901F90C0
:0206200018952B
:100622001F920F920FB60F9211242F933F934F9365
:100632005F936F937F938F939F93AF93BF93EF9348
:10064200FF93E0917200F0917300309709F00995E1
:10065200FF91EF91BF91AF919F918F917F916F9198
:100662005F914F913F912F910F900FBE0F901F906E
:020672001895D9
:100674001F920F920FB60F9211242F933F934F9313
:100684005F936F937F938F939F93AF93BF93EF93F6
:10069400FF93E0917000F0917100309709F0099593
:1006A400FF91EF91BF91AF919F918F917F916F9146
:1006B4005F914F913F912F910F900FBE0F901F901C
:0206C400189587
:1006C6001F920F920FB60F9211242F933F934F93C1
:1006D6005F936F937F938F939F93AF93BF93EF93A4
:1006E600FF93E0916E00F0916F00309709F0099545
:1006F600FF91EF91BF91AF919F918F917F916F91F4
:100706005F914F913F912F910F900FBE0F901F90C9
:02071600189534
:100718001F920F920FB60F9211242F933F934F936E
:100728005F936F937F938F939F93AF93BF93EF9351
:10073800FF93E0916C00F0916D00309709F00995F6
:10074800FF91EF91BF91AF919F918F917F916F91A1
:100758005F914F913F912F910F900FBE0F901F9077
:020768001895E2
:10076A001F920F920FB60F9211242F933F934F931C
:10077A005F936F937F938F939F93AF93BF93EF93FF
:10078A00FF93E0916A00F0916B00309709F00995A8
:10079A00FF91EF91BF91AF919F918F917F916F914F
:1007AA005F914F913F912F910F900FBE0F901F9025
:0207BA00189590
:1007BC001F920F920FB60F9211242F933F934F93CA
:1007CC005F936F937F938F939F93AF93BF93EF93AD
:1007DC00FF93E0916800F0916900309709F009955A
:1007EC00FF91EF91BF91AF919F918F917F916F91FD
:1007FC005F914F913F912F910F900FBE0F901F90D3
:02080C0018953D
:10080E000E94260580EA90E0A0E8F82ED92FCA2F84
:10081E0000E810E021E041E0BC018A2F0E94730441
:10082E006AEB70E08091BB000E94180581EE94E0A7
:10083E000197F1F700C000000091BA002FE041E0EF
:0C084E006F2D7D2F8C2F0E94EA04EACF52
:10085A00CF92DF92EF92CF93DF93EA016115710590
:10086A00810581F0209781F04881442379F06B015A
:10087A00E82E21968E2DB6010E94630249914111FC
:10088A00F9CF05C080E003C080E001C081E0DF91BC
:0A089A00CF91EF90DF90CF9008950A
:1008A400423071F018F4413031F019C0433069F02E
:1008B400443081F014C04FE7420F0E943302089580
:1008C4004FEB420F0E943302089543E9420F0E9406
:1008D4003302089543ED420F0E943302089581E0EC
:0208E400089575
:1008E600CF92DF92EF920F931F93611571058105E9
:1008F60069F00115110561F06B01E82E0E945204A2
:10090600A8018E2DB6010E942D0403C080E001C00F
:0E09160080E01F910F91EF90DF90CF90089539
:10092400CF92DF92EF92CF936B01E82E9FEFC91A1B
:10093400D90AE90A41E08E2DB6010E943201C82F7E
:1009440000C000C0000040E08E2DB6010E943201BC
:0C0954008C23CF91EF90DF90CF9008959E
:1009600066EB70E080E80E94DF0065EB70E080E8F5
:100970000E94DF0064EB70E080E80E94DF0063EB20
:1009800070E080E80E94DF006C986D9A6B986A9A1C
:0C099000689A699A70986E9A81E0089548
:10099C00CF92DF92EF9261157105810581F06B01A9
:1009AC00E82E0E94DF00F6014491E7FC408147FBF2
:1009BC00442740F98E2DB6010E94320101C080E01F
:0809CC00EF90DF90CF90089539
:1009D400CF92DF92EF920F9361157105810551F06B
:1009E4006B01E82E0E945204402F8E2DB6010E9406
:1009F400630201C080E00F91EF90DF90CF900895E3
:100A04009AB721E030E002C0220F331F8A95E2F743
:060A1400292B2ABF089502
:100A1A00EC010E9430050E942F05CE010E9431058B
:060A2A00CE010E942D0523
:100A30008FB9779BFECF8FB1FB01808381E0089552
:0C0A400060EA70E080E80E946600089503
:0A0A4C000E9420050E94B0040895E6
:040A56000C940000FC
:040A5A000E94640092
:020A5E000895F9
:020A60000895F7
:020A62000895F5
:100A6400526563656976696E672066726F6D2000F2
:080A74003B00380035003200A0
:080A7C003A003700340031009C
:060A8400020A121A222AE8
:010A8A00610A
:010A8B0079F1
:010A8C003138
:010A8D0069FF
:010A8E005314
:00000001FF
