:100000000C9436000C9434050C94BA020C9434050C
:100010000C9405040C94DC030C94B3030C948A0335
:100020000C9461030C9438030C940F030C94E602B7
:100030000C9434050C94BA010C9434050C9478019A
:100040000C9434050C9434050C9434050C9434054C
:100050000C9434050060008080008000A6000A76C1
:1000600000A600B78000B700BC000A9C11241FBE88
:10007000CFE5D8E0DEBFCDBFE4E5F0E040E017C05B
:10008000B591A59135912591059107FD0CC09591EC
:100090008591EF01F92FE82F05900D92A217B30774
:1000A000D9F7FE0104C01D92A217B307E1F7EC36A1
:1000B000F40731F70E942E040C941605F894FFCF34
:1000C0002F923F924F926F927F928F92CF92DF92B8
:1000D000EF9261157105810509F460C06B01E82E8E
:1000E0000E94D7048E2DB6016F5F7F4F8F4F0E9405
:1000F000D70436018E2C82E0680E711C811C16011B
:100100004E2C96E0290E311C411C882DB3010E9413
:10011000D7048FEF681A780A880A6214730484047B
:10012000A1F787E893E10197F1F700C0000048E3E9
:100130008E2DB6010E942D0281EE94E00197F1F719
:1001400000C0000048E38E2DB6010E942D0292E30C
:100150009A95F1F748E38E2DB6010E942D0241E0F9
:100160008E2DB6010E942D0242E08E2DB6010E9416
:100170002D0246E08E2DB6010E942D024CE08E2D00
:10018000B6010E942D0248E28E2DB6010E942D027A
:1001900040E88E2DB6010E942D0201C080E0EF9054
:1001A000DF90CF908F907F906F904F903F902F90E7
:0201B0000895B0
:1001B200A82FCB010097A10509F449C0FC012491A5
:1001C200A7FD20812695269526952770FC0134915E
:1001D200A7FD308136FB442740F936FF03C041308A
:1001E200D9F037C0FC018491A7FD80818770E82F88
:1001F200F0E0EE0FFF1FE856FF4F0190F081E02D77
:10020200308181E090E002C0880F991F2A95E2F7C1
:10021200832B808381E00895FC018491A7FD808176
:100222008770E82FF0E0EE0FFF1FE856FF4F0190B6
:10023200F081E02D308181E090E002C0880F991FAB
:100242002A95E2F780958323808381E0089580E0F8
:06025200089580E008950C
:10025800A82FCB010097A10509F442C0FC01249105
:10026800A7FD20812695269526952770442319F009
:100278004130E1F037C0FC018491A7FD808187708F
:10028800E82FF0E0EE0FFF1FE057FF4F0190F081DD
:10029800E02D308181E090E002C0880F991F2A95F7
:1002A800E2F780958323808381E00895FC0184919F
:1002B800A7FD80818770E82FF0E0EE0FFF1FE05761
:1002C800FF4F0190F081E02D308181E090E002C085
:1002D800880F991F2A95E2F7832B808381E0089580
:0802E80080E0089580E0089514
:1002F0001F920F920FB60F9211242F933F934F939B
:100300005F936F937F938F939F93AF93BF93EF937D
:10031000FF932091B4002F5F2093B4008091AC0034
:100320009091AD00A091AE00820F911DA11DFC0126
:100330008491A7FD808181110BC01092B4001092AE
:10034000B300E091AF00F091B0000995569801C05C
:100350008CB9FF91EF91BF91AF919F918F917F9158
:100360006F915F914F913F912F910F900FBE0F9022
:040370001F9018952D
:100374001F920F920FB60F9211242F933F934F9316
:100384005F936F937F938F939F93AF93BF93EF93F9
:10039400FF938091B4009CB1E091B100F091B20060
:1003A400E80FF11D90838F5F8093B4009091B500A6
:1003B40089130AC01092B4001092B300E091AF0008
:1003C400F091B00009955798FF91EF91BF91AF91CB
:1003D4009F918F917F916F915F914F913F912F9159
:0A03E4000F900FBE0F901F901895A8
:1003EE00CF92DF92EF92CF93DF936B01E82EC42F63
:1003FE0041706E5F7F4F8F4F0E942C01D82FC1FB33
:10040E00442740F98E2DB6016D5F7F4F8F4F0E94AE
:10041E002C01D823C2FB442740F98E2DB6016C5F08
:10042E007F4F8F4F0E942C01D823C3FB442740F9E6
:10043E008E2DB6016B5F7F4F8F4F0E942C018D2347
:0C044E00DF91CF91EF90DF90CF900895E8
:10045A00CF92DF92EF92CF93DF93611571058105F9
:10046A0001F1D42F6B01E82E40E00E942C01C82F25
:10047A004D2F42954F708E2DB6010E94F701C82369
:10048A008E2DB6010E94B904C8234D2F8E2DB601B8
:10049A000E94F701C8238E2DB6010E94B9048C234D
:1004AA0001C080E0DF91CF91EF90DF90CF90089567
:1004BA00CF92DF92EF92CF93DF9361157105810599
:1004CA0001F1D42F6B01E82E41E00E942C01C82FC4
:1004DA004D2F42954F708E2DB6010E94F701C82309
:1004EA008E2DB6010E94B904C8234D2F8E2DB60158
:1004FA000E94F701C8238E2DB6010E94B9048C23ED
:10050A0001C080E0DF91CF91EF90DF90CF90089506
:10051A00CF92DF92EF926BEB70E080E80E94D900F5
:10052A006AEB70E080E80E94D90069EB70E080E82D
:10053A000E94D90088EB90E06C0120E8E22E8E2D13
:10054A00B6010E94D90041E08E2DB6010E942C010D
:10055A006C9A6D9A6B986A9A689A699A70986E9A68
:0A056A0081E0EF90DF90CF9008953C
:100574001F920F920FB60F9211242F933F934F9314
:100584005F936F937F938F939F93AF93BF93EF93F7
:10059400FF93E091A600F091A700309721F0099510
:1005A40086E00E940B05FF91EF91BF91AF919F915F
:1005B4008F917F916F915F914F913F912F910F9008
:0805C4000FBE0F901F90189567
:1005CC001F920F920FB60F9211242F933F934F93BC
:1005DC005F936F937F938F939F93AF93BF93EF939F
:1005EC00FF93E0917600F0917700309709F0099530
:1005FC00FF91EF91BF91AF919F918F917F916F91EF
:10060C005F914F913F912F910F900FBE0F901F90C4
:02061C0018952F
:10061E001F920F920FB60F9211242F933F934F9369
:10062E005F936F937F938F939F93AF93BF93EF934C
:10063E00FF93E0917400F0917500309709F00995E1
:10064E00FF91EF91BF91AF919F918F917F916F919C
:10065E005F914F913F912F910F900FBE0F901F9072
:02066E001895DD
:100670001F920F920FB60F9211242F933F934F9317
:100680005F936F937F938F939F93AF93BF93EF93FA
:10069000FF93E0917200F0917300309709F0099593
:1006A000FF91EF91BF91AF919F918F917F916F914A
:1006B0005F914F913F912F910F900FBE0F901F9020
:0206C00018958B
:1006C2001F920F920FB60F9211242F933F934F93C5
:1006D2005F936F937F938F939F93AF93BF93EF93A8
:1006E200FF93E0917000F0917100309709F0099545
:1006F200FF91EF91BF91AF919F918F917F916F91F8
:100702005F914F913F912F910F900FBE0F901F90CD
:02071200189538
:100714001F920F920FB60F9211242F933F934F9372
:100724005F936F937F938F939F93AF93BF93EF9355
:10073400FF93E0916E00F0916F00309709F00995F6
:10074400FF91EF91BF91AF919F918F917F916F91A5
:100754005F914F913F912F910F900FBE0F901F907B
:020764001895E6
:100766001F920F920FB60F9211242F933F934F9320
:100776005F936F937F938F939F93AF93BF93EF9303
:10078600FF93E0916C00F0916D00309709F00995A8
:10079600FF91EF91BF91AF919F918F917F916F9153
:1007A6005F914F913F912F910F900FBE0F901F9029
:0207B600189594
:1007B8001F920F920FB60F9211242F933F934F93CE
:1007C8005F936F937F938F939F93AF93BF93EF93B1
:1007D800FF93E0916A00F0916B00309709F009955A
:1007E800FF91EF91BF91AF919F918F917F916F9101
:1007F8005F914F913F912F910F900FBE0F901F90D7
:02080800189541
:10080A001F920F920FB60F9211242F933F934F937B
:10081A005F936F937F938F939F93AF93BF93EF935E
:10082A00FF93E0916800F0916900309709F009950B
:10083A00FF91EF91BF91AF919F918F917F916F91AE
:10084A005F914F913F912F910F900FBE0F901F9084
:02085A001895EF
:10085C000E942F0580EA90E0A0E8F82ED92FCA2F2D
:10086C0000E810E021E041E0BC018A2F0E949A04CC
:10087C0066EB70E08091B7000E94210581EE94E058
:10088C000197F1F700C000000091B6002FE041E0A5
:0C089C006F2D7D2F8C2F0E94F304EACFFB
:1008A800CF92DF92EF92CF93DF93EA016115710542
:1008B800810581F0209781F04881442379F06B010C
:1008C800E82E21968E2DB6010E945D0249914111B4
:1008D800F9CF05C080E003C080E001C081E0DF916E
:0A08E800CF91EF90DF90CF900895BC
:1008F200423071F018F4413031F019C0433069F0E0
:10090200443081F014C04FE7420F0E942D02089537
:100912004FEB420F0E942D02089543E9420F0E94BD
:100922002D02089543ED420F0E942D02089581E0A9
:02093200089526
:10093400CF92DF92EF920F931F936115710581059A
:1009440069F00115110561F06B01E82E0E9479042C
:10095400A8018E2DB6010E94540403C080E001C09A
:0E09640080E01F910F91EF90DF90CF900895EB
:10097200CF92DF92EF92CF936B01E82E9FEFC91ACD
:10098200D90AE90A41E08E2DB6010E942C01C82F36
:1009920000C000C0000040E08E2DB6010E942C0174
:0C09A2008C23CF91EF90DF90CF90089550
:1009AE00CF92DF92EF9261157105810581F06B0197
:1009BE00E82E0E94D900F6014491E7FC408147FBE6
:1009CE00442740F98E2DB6010E942C0101C080E013
:0809DE00EF90DF90CF90089527
:1009E600CF92DF92EF920F9361157105810551F059
:1009F6006B01E82E0E947904402F8E2DB6010E94CD
:100A06005D0201C080E00F91EF90DF90CF900895D6
:100A16009AB721E030E002C0220F331F8A95E2F731
:060A2600292B2ABF0895F0
:100A2C00EC010E9439050E943805CE010E943A055E
:060A3C00CE010E94360508
:100A42008FB9779BFECF8FB1FB01808381E0089540
:0C0A520060EA70E080E80E9460000895F7
:0A0A5E000E9429050E948D020895F0
:040A68000C940000EA
:040A6C000E945E0086
:020A70000895E7
:020A72000895E5
:020A74000895E3
:100A7600526563656976696E672066726F6D2000E0
:080A86003B003800350032008E
:080A8E003A003700340031008A
:060A9600020A121A222AD6
:010A9C004D0C
:010A9D002137
:010A9E00391E
:010A9F0071E5
:010AA000292C
:00000001FF
