:100000000C9434000C9492020C9492020C94920280
:100010000C9492020C9492020C9492020C94920210
:100020000C9492020C9492020C9492020C94920200
:100030000C9492020C9492020C9492020C949202F0
:100040000C9492020C9492020C9492020C949202E0
:100050000C9492020060007F000532007F008280D5
:10006000008200840005510011241FBECFE5D8E0B6
:10007000DEBFCDBFE4E5F0E040E017C0B591A5914B
:1000800035912591059107FD0CC095918591EF0162
:10009000F92FE82F05900D92A217B307D9F7FE01AB
:1000A00004C01D92A217B307E1F7E736F40731F752
:0C00B0000E945E000C947E02F894FFCFCA
:1000BC000E946E0288E790E06C0120E8E22EC1E01D
:1000CC008DE790E01C0120E8422E8BE790E03C018C
:1000DC0020E8822E43E850E08E2DB6010E94790173
:1000EC008091830081110FC080917F0090918000DE
:1000FC0001969093800080937F00893E934050F04E
:10010C00109282000BC01092800010927F00C0935E
:10011C008200E0CF809182008111DCCF8091810040
:10012C00853019F4109281000DC08230E9F028F46A
:10013C00882341F0813079F031C08330F1F0843084
:10014C0029F12CC0842DB1010E940802882DB30125
:10015C000E94080223C0842DB1010E942202882D26
:10016C00B3010E9422021AC0842DB1010E94220206
:10017C00882DB3010E94080211C0842DB1010E9488
:10018C000802882DB3010E94220208C0842DB101FF
:10019C000E943C02882DB3010E943C028091810098
:0801AC008F5F8093810096CF64
:1001B400A82FCB010097A10509F449C0FC012491A3
:1001C400A7FD20812695269526952770FC0134915C
:1001D400A7FD308136FB442740F936FF03C0413088
:1001E400D9F037C0FC018491A7FD80818770E82F86
:1001F400F0E0EE0FFF1FE059FF4F0190F081E02D7A
:10020400308181E090E002C0880F991F2A95E2F7BF
:10021400832B808381E00895FC018491A7FD808174
:100224008770E82FF0E0EE0FFF1FE059FF4F0190B9
:10023400F081E02D308181E090E002C0880F991FA9
:100244002A95E2F780958323808381E0089580E0F6
:06025400089580E008950A
:10025A00A82FCB010097A10509F442C0FC01249103
:10026A00A7FD20812695269526952770442319F007
:10027A004130E1F037C0FC018491A7FD808187708D
:10028A00E82FF0E0EE0FFF1FE859FF4F0190F081D1
:10029A00E02D308181E090E002C0880F991F2A95F5
:1002AA00E2F780958323808381E00895FC0184919D
:1002BA00A7FD80818770E82FF0E0EE0FFF1FE85955
:1002CA00FF4F0190F081E02D308181E090E002C083
:1002DA00880F991F2A95E2F7832B808381E008957E
:0802EA0080E0089580E0089512
:1002F200CF92DF92EF920F931F93CF93DF930F92E0
:10030200CDB7DEB7198261157105810551F141152D
:10031200510549F18A016B01E82EAE014F5F5F4F33
:100322000E94BE0192E0C90ED11CE11CF60194911B
:10033200E7FC908191110AC09981913019F4F8017A
:10034200108212C091E0F80190830EC0913061F4E6
:100352009981913019F4F801908306C0F801108256
:1003620003C080E001C080E00F90DF91CF911F9128
:0A0372000F91EF90DF90CF900895F7
:10037C00A82FCB010097A10529F14115510521F1B9
:10038C00FC012491A7FD20812695269526952770A2
:10039C00FC018491A7FD80818770E82FF0E0EE0FBF
:1003AC00FF1FE05AFF4F0190F081E02D808190E01B
:1003BC0002C0959587952A95E2F78170FA018083A2
:0C03CC0081E0089580E0089580E008952D
:1003D800CF92DF92EF9261157105810581F06B0173
:1003E800E82E0E94DA00F6014491E7FC408147FBC1
:1003F800442740F98E2DB6010E942D0101C080E0EE
:08040800EF90DF90CF90089502
:10041000CF92DF92EF9261157105810571F06B014A
:10042000E82E41E00E942D018E2DB6016F5F7F4FB7
:100430008F4F40E00E942D0101C080E0EF90DF90DF
:04044000CF900895BC
:10044400CF92DF92EF9261157105810571F06B0116
:10045400E82E40E00E942D018E2DB6016F5F7F4F84
:100464008F4F41E00E942D0101C080E0EF90DF90AA
:04047400CF90089588
:10047800CF92DF92EF9261157105810571F06B01E2
:10048800E82E40E00E942D018E2DB6016F5F7F4F50
:100498008F4F40E00E942D0101C080E0EF90DF9077
:0404A800CF90089554
:1004AC00CF92DF92EF9261157105810561F06B01BE
:1004BC00E82E0E94EC018E2DB6016F5F7F4F8F4F9F
:1004CC000E94EC0101C080E0EF90DF90CF90089586
:1004DC0068E770E080E80E9489026DE770E080E8D0
:1004EC000E9456026BE770E080E80E945602089565
:1004FC00EC010E9497020E949602CE010E94980283
:06050C00CE010E949402E2
:1005120061157105810519F00E94DA00089580E0E5
:0205220008953A
:040524000C94000033
:040528000E945C00D1
:02052C00089530
:02052E0008952E
:0205300008952C
:080532003900360033003000EF
:08053A003B00380035003200DF
:080542003A00370034003100DB
:03054A004201006B
:02054D001A2270
:02054F000A128E
:0105510001A8
:0105520001A7
:00000001FF
