:100000000C9436000C94BD030C9465010C94BD0354
:100010000C94D9020C94B0020C9487020C945E02EA
:100020000C9435020C940C020C94E3010C94BA016C
:100030000C94BD030C94BD030C94BD030C94BD0340
:100040000C94BD030C94BD030C94BD030C94BD0330
:100050000C94BD0300600080800080009000078C3D
:1000600000900096800096009900079C11241FBE06
:10007000CFE5D8E0DEBFCDBFE4E5F0E040E017C05B
:10008000B591A59135912591059107FD0CC09591EC
:100090008591EF01F92FE82F05900D92A217B30774
:1000A000D9F7FE0104C01D92A217B307E1F7EC36A1
:1000B000F40731F70E945A030C94A003F894FFCF81
:1000C000A82FCB010097A10509F449C0FC01249198
:1000D000A7FD20812695269526952770FC01349151
:1000E000A7FD308136FB442740F936FF03C041307D
:1000F000D9F037C0FC018491A7FD80818770E82F7B
:10010000F0E0EE0FFF1FE857FF4F0190F081E02D68
:10011000308181E090E002C0880F991F2A95E2F7B4
:10012000832B808381E00895FC018491A7FD808169
:100130008770E82FF0E0EE0FFF1FE857FF4F0190A8
:10014000F081E02D308181E090E002C0880F991F9E
:100150002A95E2F780958323808381E0089580E0EB
:06016000089580E00895FF
:10016600A82FCB010097A10509F442C0FC012491F8
:10017600A7FD20812695269526952770442319F0FC
:100186004130E1F037C0FC018491A7FD8081877082
:10019600E82FF0E0EE0FFF1FE058FF4F0190F081CF
:1001A600E02D308181E090E002C0880F991F2A95EA
:1001B600E2F780958323808381E00895FC01849192
:1001C600A7FD80818770E82FF0E0EE0FFF1FE05853
:1001D600FF4F0190F081E02D308181E090E002C078
:1001E600880F991F2A95E2F7832B808381E0089573
:0801F60080E0089580E0089507
:1001FE00CF93DF930F92CDB7DEB7611571058105F1
:10020E0029F19B01482FFB01849147FD8081877066
:10021E009981987F892B8983F901949147FD90816B
:10022E009873877C892B8F7B8983F901949147FD85
:10023E00908196FB992790F990FB87F98983BE01EF
:10024E006F5F7F4F80E80E94020301C080E00F9035
:06025E00DF91CF9108952D
:10026400CF93DF930F92CDB7DEB76115710581058A
:1002740029F19B01482FFB01849147FD8081877000
:100284009981987F892B8983F901949147FD908105
:100294009873877C892B8F7B8983F901949147FD1F
:1002A400908196FB992790F990FB87F98983BE0189
:1002B4006F5F7F4F80E80E94910101C080E00F9042
:0602C400DF91CF910895C7
:1002CA001F920F920FB60F9211242F933F934F93C1
:1002DA005F936F937F938F939F93AF93BF93EF93A4
:1002EA00FF93E0919000F0919100309721F00995E9
:1002FA0086E00E948A03FF91EF91BF91AF919F918F
:10030A008F917F916F915F914F913F912F910F90B4
:08031A000FBE0F901F90189513
:10032200A82FCB010097A10511F1FC012491A7FD93
:1003320020812695269526952770FC018491A7FD9C
:1003420080818770E82FF0E0EE0FFF1FE058FF4F2B
:100352000190F081E02D308181E090E002C0880FB1
:10036200991F2A95E2F78327808381E0089580E030
:020372000895EC
:100374001F920F920FB60F9211242F933F934F9316
:100384005F936F937F938F939F93AF93BF93EF93F9
:10039400FF93E0917600F0917700309709F009958A
:1003A400FF91EF91BF91AF919F918F917F916F9149
:1003B4005F914F913F912F910F900FBE0F901F901F
:0203C40018958A
:1003C6001F920F920FB60F9211242F933F934F93C4
:1003D6005F936F937F938F939F93AF93BF93EF93A7
:1003E600FF93E0917400F0917500309709F009953C
:1003F600FF91EF91BF91AF919F918F917F916F91F7
:100406005F914F913F912F910F900FBE0F901F90CC
:02041600189537
:100418001F920F920FB60F9211242F933F934F9371
:100428005F936F937F938F939F93AF93BF93EF9354
:10043800FF93E0917200F0917300309709F00995ED
:10044800FF91EF91BF91AF919F918F917F916F91A4
:100458005F914F913F912F910F900FBE0F901F907A
:020468001895E5
:10046A001F920F920FB60F9211242F933F934F931F
:10047A005F936F937F938F939F93AF93BF93EF9302
:10048A00FF93E0917000F0917100309709F009959F
:10049A00FF91EF91BF91AF919F918F917F916F9152
:1004AA005F914F913F912F910F900FBE0F901F9028
:0204BA00189593
:1004BC001F920F920FB60F9211242F933F934F93CD
:1004CC005F936F937F938F939F93AF93BF93EF93B0
:1004DC00FF93E0916E00F0916F00309709F0099551
:1004EC00FF91EF91BF91AF919F918F917F916F9100
:1004FC005F914F913F912F910F900FBE0F901F90D6
:02050C00189540
:10050E001F920F920FB60F9211242F933F934F937A
:10051E005F936F937F938F939F93AF93BF93EF935D
:10052E00FF93E0916C00F0916D00309709F0099502
:10053E00FF91EF91BF91AF919F918F917F916F91AD
:10054E005F914F913F912F910F900FBE0F901F9083
:02055E001895EE
:100560001F920F920FB60F9211242F933F934F9328
:100570005F936F937F938F939F93AF93BF93EF930B
:10058000FF93E0916A00F0916B00309709F00995B4
:10059000FF91EF91BF91AF919F918F917F916F915B
:1005A0005F914F913F912F910F900FBE0F901F9031
:0205B00018959C
:1005B2001F920F920FB60F9211242F933F934F93D6
:1005C2005F936F937F938F939F93AF93BF93EF93B9
:1005D200FF93E0916800F0916900309709F0099566
:1005E200FF91EF91BF91AF919F918F917F916F9109
:1005F2005F914F913F912F910F900FBE0F901F90DF
:02060200189549
:10060400CF92DF92EF9261157105810581F06B0144
:10061400E82E0E946000F6014491E7FC408147FB0C
:10062400442740F98E2DB6010E94B30001C080E03A
:08063400EF90DF90CF900895D4
:10063C008FB58E7F8FBD8FB58D7F8FBD8EB5877F2C
:10064C008EBD8EB58F7E8EBD1DBC1CBC89B78460E3
:10065C0089BF8EB5887F8EBD8EB582608EBD0895A4
:10066C0083B78F7B83BF83B7877F83BF80EC82BFC9
:10067C0089B7816089BF83B7887F83BF83B7826066
:04068C0083BF08958B
:1006900085B58F7B85BD85B5877F85BD80EC84BDA5
:1006A00089B7806489BF85B5887F85BD85B583603E
:0406B00085BD089567
:1006B4000E9495036BE08BEA93E00E947C0369E05F
:1006C40081EB93E00E947C0365E087EB93E00E945A
:0406D4007C03FFCFD5
:1006D80068E970E080E80E94FF0067E970E080E860
:1006E8000E94FF0066E970E080E80E94FF0008951C
:1006F800009751F0E62FF0E0EE0FFF1FE05AFF4F92
:0C0708009183808381E0089582E00895D1
:100714009AB721E030E002C0220F331F8A95E2F736
:06072400292B2ABF0895F5
:10072A000E946C030E9436030E941E030E94480323
:06073A000E94BF030895B8
:10074000EC010E94C4030E94C303CE010E94C503B2
:06075000CE010E94C1036E
:0C07560068E970E080E80E94320108951C
:0C07620067E970E080E80E943201089511
:0C076E0066E970E080E80E943201089506
:04077A000C940000DB
:04077E0078940895CE
:040782000E945E0073
:020786000895D4
:020788000895D2
:02078A000895D0
:08078C003B003800350032008B
:080794003A0037003400310087
:01079C000359
:01079D003A21
:01079E003228
:00000001FF
