:100000000C9433000C9445050C94BA020C944505ED
:100010000C9405040C94DC030C94B3030C948A0335
:100020000C9461030C9438030C940F030C94E602B7
:100030000C9445050C94B7010C9445050C9475017E
:100040000C9445050C9445050C9445050C94450508
:100050000C9445050060008080008000A7000A988D
:1000600000A700B9800011241FBECFE5D8E0DEBF95
:10007000CDBFE4E5F0E040E017C0B591A591359122
:100080002591059107FD0CC095918591EF01F92F00
:10009000E82F05900D92A217B307D9F7FE0104C00F
:1000A0001D92A217B307E1F7E536F40731F70E9476
:0A00B00053040C942F05F894FFCFC1
:1000BA002F923F924F926F927F928F92CF92DF92BE
:1000CA00EF9261157105810509F460C06B01E82E94
:1000DA000E94FA048E2DB6016F5F7F4F8F4F0E94E8
:1000EA00FA0436018E2C82E0680E711C811C1601FE
:1000FA004E2C96E0290E311C411C882DB3010E941A
:10010A00FA048FEF681A780A880A6214730484045E
:10011A00A1F787E893E10197F1F700C0000048E3EF
:10012A008E2DB6010E942A0281EE94E00197F1F722
:10013A0000C0000048E38E2DB6010E942A0292E315
:10014A009A95F1F748E38E2DB6010E942A0241E002
:10015A008E2DB6010E942A0242E08E2DB6010E941F
:10016A002A0246E08E2DB6010E942A024CE08E2D0C
:10017A00B6010E942A0248E28E2DB6010E942A0286
:10018A0040E88E2DB6010E942A0201C080E0EF905D
:10019A00DF90CF908F907F906F904F903F902F90ED
:0201AA000895B6
:1001AC00A82FCB010097A10509F449C0FC012491AB
:1001BC00A7FD20812695269526952770FC01349164
:1001CC00A7FD308136FB442740F936FF03C0413090
:1001DC00D9F037C0FC018491A7FD80818770E82F8E
:1001EC00F0E0EE0FFF1FE756FF4F0190F081E02D7E
:1001FC00308181E090E002C0880F991F2A95E2F7C8
:10020C00832B808381E00895FC018491A7FD80817C
:10021C008770E82FF0E0EE0FFF1FE756FF4F0190BD
:10022C00F081E02D308181E090E002C0880F991FB1
:10023C002A95E2F780958323808381E0089580E0FE
:06024C00089580E0089512
:10025200A82FCB010097A10509F442C0FC0124910B
:10026200A7FD20812695269526952770442319F00F
:100272004130E1F037C0FC018491A7FD8081877095
:10028200E82FF0E0EE0FFF1FEF56FF4F0190F081D5
:10029200E02D308181E090E002C0880F991F2A95FD
:1002A200E2F780958323808381E00895FC018491A5
:1002B200A7FD80818770E82FF0E0EE0FFF1FEF5659
:1002C200FF4F0190F081E02D308181E090E002C08B
:1002D200880F991F2A95E2F7832B808381E0089586
:0802E20080E0089580E008951A
:1002EA001F920F920FB60F9211242F933F934F93A1
:1002FA005F936F937F938F939F93AF93BF93EF9384
:10030A00FF932091B7002F5F2093B7008091AD0033
:10031A009091AE00A091AF00820F911DA11DFC012A
:10032A008491A7FD808181110BC01092B7001092B1
:10033A00B600E091B000F091B1000995569801C05D
:10034A008CB9FF91EF91BF91AF919F918F917F915E
:10035A006F915F914F913F912F910F900FBE0F9028
:04036A001F90189533
:10036E001F920F920FB60F9211242F933F934F931C
:10037E005F936F937F938F939F93AF93BF93EF93FF
:10038E00FF938091B7009CB1E091B200F091B30061
:10039E00E80FF11D90838F5F8093B7009091B800A6
:1003AE0089130AC01092B7001092B600E091B00007
:1003BE00F091B10009955798FF91EF91BF91AF91D0
:1003CE009F918F917F916F915F914F913F912F915F
:0A03DE000F900FBE0F901F901895AE
:1003E800CF92DF92EF92CF93DF936B01E82EC42F69
:1003F80041706E5F7F4F8F4F0E942901D82FC1FB3C
:10040800442740F98E2DB6016D5F7F4F8F4F0E94B4
:100418002901D823C2FB442740F98E2DB6016C5F11
:100428007F4F8F4F0E942901D823C3FB442740F9EF
:100438008E2DB6016B5F7F4F8F4F0E9429018D2350
:0C044800DF91CF91EF90DF90CF900895EE
:10045400CF92DF92EF92CF93DF93611571058105FF
:1004640001F1D42F6B01E82E40E00E942901C82F2E
:100474004D2F42954F708E2DB6010E94F401C82372
:100484008E2DB6010E94DC04C8234D2F8E2DB6019B
:100494000E94F401C8238E2DB6010E94DC048C2333
:1004A40001C080E0DF91CF91EF90DF90CF9008956D
:1004B400CF92DF92EF92CF93DF936115710581059F
:1004C40001F1D42F6B01E82E41E00E942901C82FCD
:1004D4004D2F42954F708E2DB6010E94F401C82312
:1004E4008E2DB6010E94DC04C8234D2F8E2DB6013B
:1004F4000E94F401C8238E2DB6010E94DC048C23D3
:1005040001C080E0DF91CF91EF90DF90CF9008950C
:10051400CF92DF92EF926B01E82E8091B6008111A9
:100524001EC0C114D104E104E1F041155105D9F014
:1005340081E08093B600C092AD00D092AE00E0920C
:10054400AF005093B1004093B0001092B700F60191
:100554008491E7FC80818CB9569A81E005C083E0E0
:1005640003C082E001C082E0EF90DF90CF90089555
:100574001F920F920FB60F9211242F933F934F9314
:100584005F936F937F938F939F93AF93BF93EF93F7
:10059400FF93E091A700F091A800309721F009950E
:1005A40086E00E942405FF91EF91BF91AF919F9146
:1005B4008F917F916F915F914F913F912F910F9008
:0805C4000FBE0F901F90189567
:1005CC001F920F920FB60F9211242F933F934F93BC
:1005DC005F936F937F938F939F93AF93BF93EF939F
:1005EC00FF93E0917600F0917700309709F0099530
:1005FC00FF91EF91BF91AF919F918F917F916F91EF
:10060C005F914F913F912F910F900FBE0F901F90C4
:02061C0018952F
:10061E001F920F920FB60F9211242F933F934F9369
:10062E005F936F937F938F939F93AF93BF93EF934C
:10063E00FF93E0917400F0917500309709F00995E1
:10064E00FF91EF91BF91AF919F918F917F916F919C
:10065E005F914F913F912F910F900FBE0F901F9072
:02066E001895DD
:100670001F920F920FB60F9211242F933F934F9317
:100680005F936F937F938F939F93AF93BF93EF93FA
:10069000FF93E0917200F0917300309709F0099593
:1006A000FF91EF91BF91AF919F918F917F916F914A
:1006B0005F914F913F912F910F900FBE0F901F9020
:0206C00018958B
:1006C2001F920F920FB60F9211242F933F934F93C5
:1006D2005F936F937F938F939F93AF93BF93EF93A8
:1006E200FF93E0917000F0917100309709F0099545
:1006F200FF91EF91BF91AF919F918F917F916F91F8
:100702005F914F913F912F910F900FBE0F901F90CD
:02071200189538
:100714001F920F920FB60F9211242F933F934F9372
:100724005F936F937F938F939F93AF93BF93EF9355
:10073400FF93E0916E00F0916F00309709F00995F6
:10074400FF91EF91BF91AF919F918F917F916F91A5
:100754005F914F913F912F910F900FBE0F901F907B
:020764001895E6
:100766001F920F920FB60F9211242F933F934F9320
:100776005F936F937F938F939F93AF93BF93EF9303
:10078600FF93E0916C00F0916D00309709F00995A8
:10079600FF91EF91BF91AF919F918F917F916F9153
:1007A6005F914F913F912F910F900FBE0F901F9029
:0207B600189594
:1007B8001F920F920FB60F9211242F933F934F93CE
:1007C8005F936F937F938F939F93AF93BF93EF93B1
:1007D800FF93E0916A00F0916B00309709F009955A
:1007E800FF91EF91BF91AF919F918F917F916F9101
:1007F8005F914F913F912F910F900FBE0F901F90D7
:02080800189541
:10080A001F920F920FB60F9211242F933F934F937B
:10081A005F936F937F938F939F93AF93BF93EF935E
:10082A00FF93E0916800F0916900309709F009950B
:10083A00FF91EF91BF91AF919F918F917F916F91AE
:10084A005F914F913F912F910F900FBE0F901F9084
:02085A001895EF
:10085C00CF92DF92EF92CF93DF93EA01611571058E
:10086C00810581F0209781F04881442379F06B0158
:10087C00E82E21968E2DB6010E945A024991411103
:10088C00F9CF05C080E003C080E001C081E0DF91BA
:0A089C00CF91EF90DF90CF90089508
:1008A6000E94400581EA90E03C0120E8822E80E823
:1008B60090E06C0120E8E22E8091B4009091B500A2
:1008C6000E9478048130C1F70091B4001091B50000
:1008D60023E041E0882DB3010E94BD0440E050E0D2
:0A08E6008E2DB6010E948A02E7CFB2
:1008F0000097F1F02091B60021111CC021E0209357
:10090000B6005F990EC020E030E02F5F3F4F5F9947
:1009100005C0203147E23407C1F706C02031374215
:1009200019F02CB1FC0120831092B60084E00895E8
:0809300082E0089583E00895C0
:10093800423071F018F4413031F019C0433069F099
:10094800443081F014C04FE7420F0E942A020895F4
:100958004FEB420F0E942A02089543E9420F0E947A
:100968002A02089543ED420F0E942A02089581E069
:020978000895E0
:10097A00CF92DF92EF920F931F9361157105810554
:10098A0069F00115110561F06B01E82E0E949C04C3
:10099A00A8018E2DB6010E942E0403C080E001C07A
:0E09AA0080E01F910F91EF90DF90CF900895A5
:1009B800CF92DF92EF92CF936B01E82E9FEFC91A87
:1009C800D90AE90A41E08E2DB6010E942901C82FF3
:1009D80000C000C0000040E08E2DB6010E94290131
:0C09E8008C23CF91EF90DF90CF9008950A
:1009F400CF92DF92EF9261157105810581F06B0151
:100A0400E82E0E94D600F6014491E7FC408147FBA2
:100A1400442740F98E2DB6010E94290101C080E0CF
:080A2400EF90DF90CF900895E0
:100A2C0010BC83E389B959985898529886E880BDD0
:0C0A3C00579856985598549A539A08956C
:100A48009AB721E030E002C0220F331F8A95E2F7FF
:060A5800292B2ABF0895BE
:100A5E00EC010E944A050E944905CE010E944B05F9
:060A6E00CE010E944705C5
:0C0A740061EA70E080E80E945D000895D7
:0A0A80000E943A050E941605089531
:040A8A000C940000C8
:040A8E000E945B0067
:020A92000895C5
:020A94000895C3
:020A96000895C1
:100A980048656C6C6F20666F726D20454355203237
:010AA800004D
:080AA9003B003800350032006B
:080AB1003A0037003400310067
:060AB900020A121A222AB3
:00000001FF
