:100000000C9430000C94E4040C94F7030C94E40476
:100010000C94E4040C94E4040C94E4040C94E404C0
:100020000C94E4040C94E4040C94E4040C94E404B0
:100030000C94E4040C94E4040C94E4040C94E404A0
:100040000C94E4040C94E4040C94E4040C94E40490
:100050000C94E4040060008E0009D6008E009680A7
:1000600011241FBECFE5D8E0DEBFCDBFE4E5F0E050
:1000700040E017C0B591A59135912591059107FDF7
:100080000CC095918591EF01F92FE82F05900D9205
:10009000A217B307D9F7FE0104C01D92A217B30738
:1000A000E1F7E036F40731F70E94BC020C94C50476
:0400B000F894FFCFF2
:1000B4003738392F3435362A3132332D23303D2B1E
:1000C4002F923F924F926F927F928F92AF92BF92F4
:1000D400CF92DF92EF92FF920F931F93CF93DF9310
:1000E400CDB7DEB72A970FB6F894DEBF0FBECDBFEB
:1000F400198261157105810509F47EC04115510508
:1001040009F47CC05A01688779878A870F2EF4EB3B
:10011400CF2EF0E0DF2EF0E0EF2EF02DCA82DB824E
:10012400EC8218850985FA846D837E838F831B0195
:10013400482E28E0220E311C411C53C040E0882D7B
:10014400B3010E94E4013FEF631A730A830AC614E1
:10015400D704E80499F741E06D817E818F810E9484
:10016400E4016A807B808C80AE014F5F5F4F8E2DEF
:10017400B6010E94C9039981913031F4F30194913D
:1001840087FC9081F5019083FFEFCF1ADF0AEF0A15
:100194002FEF621A720A820AC214D304E40421F70C
:1001A4002A813B814C812C5F3F4F4F4F2A833B83F5
:1001B4004C832D813E814F812F5F3F4F4F4F2D83C5
:1001C4003E834F830F2EF4ECCF2EF0E0DF2EF0E0D1
:1001D400EF2EF02D2A813B814C81C216D306E40612
:1001E40071F0C884D984EA8434E0C30ED11CE11CC4
:1001F400612E702E8F2CA2CF80E001C080E02A9661
:100204000FB6F894DEBF0FBECDBFDF91CF911F9123
:100214000F91FF90EF90DF90CF90BF90AF908F90B1
:0C0224007F906F904F903F902F900895B6
:100230002F923F924F926F927F928F92CF92DF9246
:10024000EF9261157105810509F460C06B01E82E1C
:100250000E9462048E2DB6016F5F7F4F8F4F0E9408
:10026000620436018E2C82E0680E711C811C16011E
:100270004E2C96E0290E311C411C882DB3010E94A2
:1002800062048FEF681A780A880A6214730484047F
:10029000A1F787E893E10197F1F700C0000048E378
:1002A0008E2DB6010E94690381EE94E00197F1F76B
:1002B00000C0000048E38E2DB6010E94690392E35E
:1002C0009A95F1F748E38E2DB6010E94690341E04B
:1002D0008E2DB6010E94690342E08E2DB6010E9468
:1002E000690346E08E2DB6010E9469034CE08E2D15
:1002F000B6010E94690348E28E2DB6010E9469038F
:1003000040E88E2DB6010E94690301C080E0EF90A5
:10031000DF90CF908F907F906F904F903F902F9075
:0203200008953E
:10032200A82FCB010097A10509F449C0FC01249133
:10033200A7FD20812695269526952770FC013491EC
:10034200A7FD308136FB442740F936FF03C0413018
:10035200D9F037C0FC018491A7FD80818770E82F16
:10036200F0E0EE0FFF1FE858FF4F0190F081E02D03
:10037200308181E090E002C0880F991F2A95E2F750
:10038200832B808381E00895FC018491A7FD808105
:100392008770E82FF0E0EE0FFF1FE858FF4F019043
:1003A200F081E02D308181E090E002C0880F991F3A
:1003B2002A95E2F780958323808381E0089580E087
:0603C200089580E008959B
:1003C800A82FCB010097A10509F442C0FC01249194
:1003D800A7FD20812695269526952770442319F098
:1003E8004130E1F037C0FC018491A7FD808187701E
:1003F800E82FF0E0EE0FFF1FE059FF4F0190F0816A
:10040800E02D308181E090E002C0880F991F2A9585
:10041800E2F780958323808381E00895FC0184912D
:10042800A7FD80818770E82FF0E0EE0FFF1FE059ED
:10043800FF4F0190F081E02D308181E090E002C013
:10044800880F991F2A95E2F7832B808381E008950E
:0804580080E0089580E00895A2
:100460002F923F924F926F927F928F92CF92DF9214
:10047000EF92FF920F93CF93DF933701802E611598
:100480007105810549F10C2D1301482CD22FC42F81
:100490006B01E82E402F440F440F440F405C0E9434
:1004A000690388E0280E311C411CF301449187FC4C
:1004B00040818E2DB6010E9499038FEF681A780A49
:1004C000880A62147304840481F72D2F4C2F8E2D1B
:1004D000B6010E947E0401C080E0DF91CF910F91B0
:1004E000FF90EF90DF90CF908F907F906F904F9024
:0604F0003F902F900895DB
:1004F6002F923F924F926F927F928F92CF92DF927E
:10050600EF9261157105810549F11B01482E3B01EA
:10051600882E6B01E82E84E0C80ED11CE11C882DC4
:10052600B3010E9462049FEF691A790A890AC61408
:10053600D704E804A1F7842C310188E0680E711C09
:10054600811C8E2DB6010E9462049FEFC91AD90A3A
:10055600E90AC614D704E804A1F701C080E0EF90C9
:10056600DF90CF908F907F906F904F903F902F901D
:020576000895E6
:100578000E94960488E890E03C0120E8822E80E6FC
:1005880090E06C0120E8E22E80919400813039F4EB
:1005980041E0882DB3010E9469031092940045E957
:1005A80050E08E2DB6010E94620080919500823342
:1005B80069F018F4813331F015C0833359F084336E
:1005C80069F010C081E00E94FC02DECF82E00E9448
:1005D800FC02DACF83E00E94FC02D6CF84E00E94BE
:1005E800FC02D2CF41E0882DB3010E946903CCCF31
:1005F8002F923F924F926F927F928F92CF92EF926B
:10060800FF920F93CF93DF93D82FC1E080E890E05B
:100618001C0120E8422E88E890E03C0120E8822E68
:10062800C12C042D71012C2F4D2F882DB3010E9450
:10063800300283ED90E30197F1F700C00000CF5F2F
:10064800C53171F7DF91CF910F91FF90EF90CF9067
:0E0658008F907F906F904F903F902F9008955D
:10066600CF92DF92EF92CF93DF936B01E82EC42FE8
:1006760041706E5F7F4F8F4F0E94E401D82FC1FB00
:10068600442740F98E2DB6016D5F7F4F8F4F0E9434
:10069600E401D823C2FB442740F98E2DB6016C5FD6
:1006A6007F4F8F4F0E94E401D823C3FB442740F9B4
:1006B6008E2DB6016B5F7F4F8F4F0E94E4018D2315
:0C06C600DF91CF91EF90DF90CF9008956E
:1006D200CF92DF92EF92CF93DF936115710581057F
:1006E20001F1D42F6B01E82E40E00E94E401C82FF3
:1006F2004D2F42954F708E2DB6010E943303C823B1
:100702008E2DB6010E944404C8234D2F8E2DB601B2
:100712000E943303C8238E2DB6010E9444048C2309
:1007220001C080E0DF91CF91EF90DF90CF900895EC
:10073200CF92DF92EF92CF93DF936115710581051E
:1007420001F1D42F6B01E82E41E00E94E401C82F91
:100752004D2F42954F708E2DB6010E943303C82350
:100762008E2DB6010E944404C8234D2F8E2DB60152
:100772000E943303C8238E2DB6010E9444048C23A9
:1007820001C080E0DF91CF91EF90DF90CF9008958C
:10079200A82FCB010097A10529F14115510521F19F
:1007A200FC012491A7FD2081269526952695277088
:1007B200FC018491A7FD80818770E82FF0E0EE0FA5
:1007C200FF1FE859FF4F0190F081E02D808190E0FA
:1007D20002C0959587952A95E2F78170FA01808388
:0C07E20081E0089580E0089580E0089513
:1007EE001F920F920FB60F9211242F933F934F9398
:1007FE005F936F937F938F939F93AF93BF93EF937B
:10080E00FF93E0918E00F0918F00309721F00995C3
:10081E0086E00E94AF04FF91EF91BF91AF919F913F
:10082E008F917F916F915F914F913F912F910F908B
:08083E000FBE0F901F901895EA
:10084600423071F018F4413031F019C0433069F08C
:10085600443081F014C04FE7420F0E9469030895A7
:100866004FEB420F0E946903089543E9420F0E942D
:100876006903089543ED420F0E946903089581E0DC
:020886000895D3
:10088800CF92DF92EF92CF936B01E82E9FEFC91AB8
:10089800D90AE90A41E08E2DB6010E94E401C82F69
:1008A80000C000C0000040E08E2DB6010E94E401A7
:0C08B8008C23CF91EF90DF90CF9008953B
:1008C400CF92DF92EF9261157105810581F06B0182
:1008D400E82E0E949101F6014491E7FC408147FB18
:1008E400442740F98E2DB6010E94E40101C080E046
:0808F400EF90DF90CF90089512
:1008FC00CF92DF92EF920F9361157105810551F044
:10090C006B01E82E0E942304402F8E2DB6010E940D
:10091C00990301C080E00F91EF90DF90CF90089584
:10092C000E94A40478940E94D90486E00E94D0040A
:0C093C0060E080EE94E00E94BA04089590
:1009480068E870E080E80E94180160E670E080E8DE
:060958000E947B020895DD
:10095E009AB721E030E002C0220F331F8A95E2F7EA
:06096E00292B2ABF0895A9
:10097400009741F0E62FF0E0EE0FFF1FE257FF4F24
:06098400918380830895B9
:10098A00EC010E94E9040E94E804CE010E94EA04F4
:06099A00CE010E94E604FC
:1009A000863029F48BB780648BBF81E0089580E0A6
:0209B0000895A8
:0E09B20085B78E7F85BF85B7826085BF0895AB
:0809C00081E08093940008958A
:0409C8000C9400008B
:0409CC000E9458002D
:0209D000089588
:0209D200089586
:0209D400089584
:0809D600323A030B5B636B7303
:0809DE0039003600330030003F
:0809E6003B003800350032002F
:0809EE003A003700340031002B
:0809F6001F1F1F1F1F1F1F1F01
:0609FE00020A121A222A6F
:00000001FF
