:100000000C9433000C9438040C945A020C94380469
:100010000C94A5030C947C030C9453030C942A03B6
:100020000C9401030C94D8020C94AF020C94860239
:100030000C9438040C94B7010C9438040C9475019A
:100040000C9438040C9438040C9438040C94380440
:100050000C94380400600080800080009600087EC8
:10006000009600A6800011241FBECFE5D8E0DEBFB9
:10007000CDBFE4E5F0E040E017C0B591A591359122
:100080002591059107FD0CC095918591EF01F92F00
:10009000E82F05900D92A217B307D9F7FE0104C00F
:1000A0001D92A217B307E1F7E536F40731F70E9476
:0A00B00035040C941F04F894FFCFF0
:1000BA002F923F924F926F927F928F92CF92DF92BE
:1000CA00EF9261157105810509F460C06B01E82E94
:1000DA000E94EC038E2DB6016F5F7F4F8F4F0E94F7
:1000EA00EC0336018E2C82E0680E711C811C16010D
:1000FA004E2C96E0290E311C411C882DB3010E941A
:10010A00EC038FEF681A780A880A6214730484046D
:10011A00A1F787E893E10197F1F700C0000048E3EF
:10012A008E2DB6010E942A0281EE94E00197F1F722
:10013A0000C0000048E38E2DB6010E942A0292E315
:10014A009A95F1F748E38E2DB6010E942A0241E002
:10015A008E2DB6010E942A0242E08E2DB6010E941F
:10016A002A0246E08E2DB6010E942A024CE08E2D0C
:10017A00B6010E942A0248E28E2DB6010E942A0286
:10018A0040E88E2DB6010E942A0201C080E0EF905D
:10019A00DF90CF908F907F906F904F903F902F90ED
:0201AA000895B6
:1001AC00A82FCB010097A10509F449C0FC012491AB
:1001BC00A7FD20812695269526952770FC01349164
:1001CC00A7FD308136FB442740F936FF03C0413090
:1001DC00D9F037C0FC018491A7FD80818770E82F8E
:1001EC00F0E0EE0FFF1FE857FF4F0190F081E02D7C
:1001FC00308181E090E002C0880F991F2A95E2F7C8
:10020C00832B808381E00895FC018491A7FD80817C
:10021C008770E82FF0E0EE0FFF1FE857FF4F0190BB
:10022C00F081E02D308181E090E002C0880F991FB1
:10023C002A95E2F780958323808381E0089580E0FE
:06024C00089580E0089512
:10025200A82FCB010097A10509F442C0FC0124910B
:10026200A7FD20812695269526952770442319F00F
:100272004130E1F037C0FC018491A7FD8081877095
:10028200E82FF0E0EE0FFF1FE058FF4F0190F081E2
:10029200E02D308181E090E002C0880F991F2A95FD
:1002A200E2F780958323808381E00895FC018491A5
:1002B200A7FD80818770E82FF0E0EE0FFF1FE05866
:1002C200FF4F0190F081E02D308181E090E002C08B
:1002D200880F991F2A95E2F7832B808381E0089586
:0802E20080E0089580E008951A
:1002EA001F920F920FB60F9211242F933F934F93A1
:1002FA005F936F937F938F939F93AF93BF93EF9384
:10030A00FF932091A4002F5F2093A40080919C006A
:10031A0090919D00A0919E00820F911DA11DFC014C
:10032A008491A7FD808181110BC01092A4001092C4
:10033A00A300E0919F00F091A0000995569801C092
:10034A008CB9FF91EF91BF91AF919F918F917F915E
:10035A006F915F914F913F912F910F900FBE0F9028
:04036A001F90189533
:10036E001F920F920FB60F9211242F933F934F931C
:10037E005F936F937F938F939F93AF93BF93EF93FF
:10038E00FF938091A4009CB1E091A100F091A20096
:10039E00E80FF11D90838F5F8093A4009091A500CC
:1003AE0089130AC01092A4001092A300E0919F003E
:1003BE00F091A00009955798FF91EF91BF91AF91E1
:1003CE009F918F917F916F915F914F913F912F915F
:0A03DE000F900FBE0F901F901895AE
:1003E800CF92DF92EF92CF93DF936B01E82EC42F69
:1003F80041706E5F7F4F8F4F0E942901D82FC1FB3C
:10040800442740F98E2DB6016D5F7F4F8F4F0E94B4
:100418002901D823C2FB442740F98E2DB6016C5F11
:100428007F4F8F4F0E942901D823C3FB442740F9EF
:100438008E2DB6016B5F7F4F8F4F0E9429018D2350
:0C044800DF91CF91EF90DF90CF900895EE
:10045400CF92DF92EF92CF93DF93611571058105FF
:1004640001F1D42F6B01E82E40E00E942901C82F2E
:100474004D2F42954F708E2DB6010E94F401C82372
:100484008E2DB6010E94CE03C8234D2F8E2DB601AA
:100494000E94F401C8238E2DB6010E94CE038C2342
:1004A40001C080E0DF91CF91EF90DF90CF9008956D
:1004B4001F920F920FB60F9211242F933F934F93D5
:1004C4005F936F937F938F939F93AF93BF93EF93B8
:1004D400FF93E0919600F0919700309721F00995F1
:1004E40086E00E941404FF91EF91BF91AF919F9118
:1004F4008F917F916F915F914F913F912F910F90C9
:080504000FBE0F901F90189527
:10050C001F920F920FB60F9211242F933F934F937C
:10051C005F936F937F938F939F93AF93BF93EF935F
:10052C00FF93E0917600F0917700309709F00995F0
:10053C00FF91EF91BF91AF919F918F917F916F91AF
:10054C005F914F913F912F910F900FBE0F901F9085
:02055C001895F0
:10055E001F920F920FB60F9211242F933F934F932A
:10056E005F936F937F938F939F93AF93BF93EF930D
:10057E00FF93E0917400F0917500309709F00995A2
:10058E00FF91EF91BF91AF919F918F917F916F915D
:10059E005F914F913F912F910F900FBE0F901F9033
:0205AE0018959E
:1005B0001F920F920FB60F9211242F933F934F93D8
:1005C0005F936F937F938F939F93AF93BF93EF93BB
:1005D000FF93E0917200F0917300309709F0099554
:1005E000FF91EF91BF91AF919F918F917F916F910B
:1005F0005F914F913F912F910F900FBE0F901F90E1
:0206000018954B
:100602001F920F920FB60F9211242F933F934F9385
:100612005F936F937F938F939F93AF93BF93EF9368
:10062200FF93E0917000F0917100309709F0099505
:10063200FF91EF91BF91AF919F918F917F916F91B8
:100642005F914F913F912F910F900FBE0F901F908E
:020652001895F9
:100654001F920F920FB60F9211242F933F934F9333
:100664005F936F937F938F939F93AF93BF93EF9316
:10067400FF93E0916E00F0916F00309709F00995B7
:10068400FF91EF91BF91AF919F918F917F916F9166
:100694005F914F913F912F910F900FBE0F901F903C
:0206A4001895A7
:1006A6001F920F920FB60F9211242F933F934F93E1
:1006B6005F936F937F938F939F93AF93BF93EF93C4
:1006C600FF93E0916C00F0916D00309709F0099569
:1006D600FF91EF91BF91AF919F918F917F916F9114
:1006E6005F914F913F912F910F900FBE0F901F90EA
:0206F600189555
:1006F8001F920F920FB60F9211242F933F934F938F
:100708005F936F937F938F939F93AF93BF93EF9371
:10071800FF93E0916A00F0916B00309709F009951A
:10072800FF91EF91BF91AF919F918F917F916F91C1
:100738005F914F913F912F910F900FBE0F901F9097
:02074800189502
:10074A001F920F920FB60F9211242F933F934F933C
:10075A005F936F937F938F939F93AF93BF93EF931F
:10076A00FF93E0916800F0916900309709F00995CC
:10077A00FF91EF91BF91AF919F918F917F916F916F
:10078A005F914F913F912F910F900FBE0F901F9045
:02079A001895B0
:10079C00CF92DF92EF92CF936B01E82E9FEFC91AA5
:1007AC00D90AE90A41E08E2DB6010E942901C82F11
:1007BC0000C000C0000040E08E2DB6010E9429014F
:0C07CC008C23CF91EF90DF90CF90089528
:1007D800CF92DF92EF9261157105810581F06B016F
:1007E800E82E0E94D600F6014491E7FC408147FBC1
:1007F800442740F98E2DB6010E94290101C080E0EE
:08080800EF90DF90CF900895FE
:100810000898099888E380B986B7806486BF86B750
:08082000846086BF81E00895A9
:100828009AB721E030E002C0220F331F8A95E2F721
:06083800292B2ABF0895E0
:10083E00EC010E943D040E943C04CE010E943E0445
:06084E00CE010E943A04F5
:0C08540060E970E080E80E945D000895FB
:0A0860000E942A040E940804089573
:06086A000E943004FFCFE4
:040870000C940000E4
:040874000E945B0083
:020878000895E1
:02087A000895DF
:02087C000895DD
:08087E003B0038003500320098
:080886003A0037003400310094
:06088E00020A121A222AE0
:00000001FF
