:100000000C9436000C9451030C94B9020C945103D7
:100010000C9451030C9451030C9451030C94510310
:100020000C9451030C9451030C9451030C94510300
:100030000C9451030C9451030C9451030C945103F0
:100040000C94E7000C9451030C9451030C9451034D
:100050000C945103006000800006B00080008E8088
:10006000008E00960006D00096009B8011241FBED3
:10007000CFE5D8E0DEBFCDBFE4E5F0E040E017C05B
:10008000B591A59135912591059107FD0CC09591EC
:100090008591EF01F92FE82F05900D92A217B30774
:1000A000D9F7FE0104C01D92A217B307E1F7EC36A1
:1000B000F40731F70E9460000C944103F894FFCFDD
:1000C0000E944C036894882483F80F2EF7E09F2E3B
:1000D000F02D0F2EF6E0AF2EF02D0F2EF5E0BF2EF7
:1000E000F02D6894CC24C2F80F2EF3E0DF2EF02D13
:1000F0006894EE24E1F8FF24F39466E870E080E071
:100100000E94860287EA91E60197F1F700C000009D
:1001100080918600909187008038910518F41092A4
:100120009600EBCF8F3F910509F018F4F0929600FE
:1001300046C08038E1E09E0718F4E09296003FC088
:100140008115F2E09F0718F4D092960038C08038ED
:1001500022E0920718F4C092960031C08115E3E0C6
:100160009E0718F4B09296002AC08038F3E09F07EB
:1001700018F4A092960023C08115944018F4909230
:1001800096001DC0809296001AC0C817D9073CF48B
:10019000F8016081718180E80E94EB0106C0F801DE
:1001A0006081718180E80E941F02219680919600F3
:1001B00090E00E5F1F4FC817D9073CF39ECF809188
:0E01C000960090E000E610E0C0E0D0E0DECF58
:1001CE001F920F920FB60F9211242F933F934F93BE
:1001DE005F936F937F938F939F93AF93BF93EF93A1
:1001EE00FF9380919A00811113C084B125B1E091E3
:1001FE008C00F0918D0090E0922B91838083109271
:10020E009700E0918A00F0918B00099533982CC0ED
:10021E0084B125B1E0918C00F0918D0090E0922B8D
:10022E0091838083809198008F5F80939800909146
:10023E009900891309C010929700E0918A00F091FD
:10024E008B000995339810C087B1807E87B997B11E
:10025E0080919800E0918800F0918900E80FF11DDF
:10026E008081892B87B9369AFF91EF91BF91AF911B
:10027E009F918F917F916F915F914F913F912F91B0
:0A028E000F900FBE0F901F901895FF
:10029800A82FCB010097A10509F449C0FC012491BE
:1002A800A7FD20812695269526952770FC01349177
:1002B800A7FD308136FB442740F936FF03C04130A3
:1002C800D9F037C0FC018491A7FD80818770E82FA1
:1002D800F0E0EE0FFF1FE858FF4F0190F081E02D8E
:1002E800308181E090E002C0880F991F2A95E2F7DB
:1002F800832B808381E00895FC018491A7FD808190
:100308008770E82FF0E0EE0FFF1FE858FF4F0190CD
:10031800F081E02D308181E090E002C0880F991FC4
:100328002A95E2F780958323808381E0089580E011
:06033800089580E0089525
:10033E00A82FCB010097A10509F442C0FC0124911E
:10034E00A7FD20812695269526952770442319F022
:10035E004130E1F037C0FC018491A7FD80818770A8
:10036E00E82FF0E0EE0FFF1FE059FF4F0190F081F4
:10037E00E02D308181E090E002C0880F991F2A9510
:10038E00E2F780958323808381E00895FC018491B8
:10039E00A7FD80818770E82FF0E0EE0FFF1FE05978
:1003AE00FF4F0190F081E02D308181E090E002C09E
:1003BE00880F991F2A95E2F7832B808381E0089599
:0803CE0080E0089580E008952D
:1003D600CF93DF930F92CDB7DEB761157105810517
:1003E60031F19B01482FFB01849147FD8081877085
:1003F6009981987F892B8983F901949147FD908192
:100406009873877C892B8F7B8983F901949147FDAB
:10041600908196FB992790F990FB87F98983BE0115
:100426006F5F7F4F80E841E00E949F0101C080E03E
:080436000F90DF91CF910895B2
:10043E00CF93DF930F92CDB7DEB7611571058105AE
:10044E0031F19B01482FFB01849147FD808187701C
:10045E009981987F892B8983F901949147FD908129
:10046E009873877C892B8F7B8983F901949147FD43
:10047E00908196FB992790F990FB87F98983BE01AD
:10048E006F5F7F4F80E840E00E949F0101C080E0D7
:08049E000F90DF91CF9108954A
:1004A600CF93DF930F92CDB7DEB761157105810546
:1004B60029F19B01482FFB01849147FD80818770BC
:1004C6009981987F892B8983F901949147FD9081C1
:1004D6009873877C892B8F7B8983F901949147FDDB
:1004E600908196FB992790F990FB87F98983BE0145
:1004F6006F5F7F4F80E80E940E0301C080E00F907F
:06050600DF91CF91089582
:10050C006115710561F19091970091112AC091E0EC
:10051C009093970097B1907E97B997B1892B87B933
:10052C00369A34990EC080E090E00196349906C05A
:10053C00803523EC9207C9F784E00EC08035934CCC
:10054C0051F0349A84B125B190E0922BFB01918348
:10055C00808381E001C084E010929700089582E0CE
:06056C00089583E00895EC
:100572001F920F920FB60F9211242F933F934F9316
:100582005F936F937F938F939F93AF93BF93EF93F9
:10059200FF93E0918000F0918100309721F009955E
:1005A20086E00E943603FF91EF91BF91AF919F9138
:1005B2008F917F916F915F914F913F912F910F900A
:0805C2000FBE0F901F90189569
:1005CA0065E970E080E80E94530264E970E080E81F
:1005DA000E94530263E970E080E80E94530262E9D4
:1005EA0070E080E80E94530261E970E080E80E94AE
:1005FA00530260E970E080E80E9453026FE870E0FD
:10060A0080E80E9453026EE870E080E80E9453027C
:02061A00089541
:10061C00CF92DF92EF9261157105810581F06B012C
:10062C00E82E0E944C01F6014491E7FC408147FB07
:10063C00442740F98E2DB6010E949F0101C080E035
:08064C00EF90DF90CF900895BC
:100654003E9A3F983D9886B1887F86B986B1876077
:0806640086B9379A339A089514
:10066C009AB721E030E002C0220F331F8A95E2F7DF
:06067C00292B2ABF08959E
:10068200EC010E9456030E945503CE010E945703BB
:06069200CE010E9453039B
:0A0698000E94E5020E942A03089563
:0406A2000C940000B4
:0406A6000E945E0050
:0206AA000895B1
:0206AC000895AF
:0206AE000895AD
:1006B0009500940093009200910090008F008E00AE
:0806C0003B0038003500320058
:0806C8003A0037003400310054
:0106D0003AEF
:0106D10032F6
:0106D2002AFD
:0106D3002204
:0106D4001A0B
:0106D5001212
:0106D6000A19
:0106D7000220
:00000001FF
