:100000000C9430000C947B020C947B020C947B02C9
:100010000C947B020C947B020C947B020C947B026C
:100020000C947B020C947B020C947B020C947B025C
:100030000C947B020C947B020C947B020C947B024C
:100040000C947B020C947B020C947B020C947B023C
:100050000C947B0200600073000504007300748040
:1000600011241FBECFE5D8E0DEBFCDBFE4E5F0E050
:1000700040E017C0B591A59135912591059107FDF7
:100080000CC095918591EF01F92FE82F05900D9205
:10009000A217B307D9F7FE0104C01D92A217B30738
:1000A000E1F7E036F40731F70E94F9000C94700292
:0400B000F894FFCFF2
:1000B400A82FCB010097A10509F449C0FC012491A4
:1000C400A7FD20812695269526952770FC0134915D
:1000D400A7FD308136FB442740F936FF03C0413089
:1000E400D9F037C0FC018491A7FD80818770E82F87
:1000F400F0E0EE0FFF1FE859FF4F0190F081E02D73
:10010400308181E090E002C0880F991F2A95E2F7C0
:10011400832B808381E00895FC018491A7FD808175
:100124008770E82FF0E0EE0FFF1FE859FF4F0190B2
:10013400F081E02D308181E090E002C0880F991FAA
:100144002A95E2F780958323808381E0089580E0F7
:06015400089580E008950B
:10015A00A82FCB010097A10509F442C0FC01249104
:10016A00A7FD20812695269526952770442319F008
:10017A004130E1F037C0FC018491A7FD808187708E
:10018A00E82FF0E0EE0FFF1FE05AFF4F0190F081D9
:10019A00E02D308181E090E002C0880F991F2A95F6
:1001AA00E2F780958323808381E00895FC0184919E
:1001BA00A7FD80818770E82FF0E0EE0FFF1FE05A5D
:1001CA00FF4F0190F081E02D308181E090E002C084
:1001DA00880F991F2A95E2F7832B808381E008957F
:0801EA0080E0089580E0089513
:1001F2000E944002C2E7D0E01E0180E8482E0F2E86
:10020200F1E7EF2EF0E0FF2EF02D370180E8882E87
:1002120000E710E0580180E8C82E1092730060E0F9
:10022200CE010E944401609173006F5F609373007E
:100232006F30B0F320C0C7010E9444016091730087
:100242006F5F609373006530B0F3882DB3010E9435
:10025200BD011092730060E0C8010E9444016091E8
:1002620073006F5F609373006A30B0F38C2DB50139
:100272000E94BD01D2CF842DB1010E94BD01109216
:06028200730060E0D8CF1C
:10028800CF92DF92EF921F93CF93DF93DDEC6D9FB8
:10029800D12D11241D2F169516951695110F212F66
:1002A800220F220F120F611B162FD695D695D695C1
:1002B800C2E36C0120E8E22E8E2DB6010E9489016E
:1002C8006FE182E00E945002612F82E00E9460028A
:1002D80083EC99E00197F1F700C000006FE282E03B
:1002E8000E9450026D2F82E00E94600283EC99E028
:1002F8000197F1F700C00000C150F1F6DF91CF91EE
:0A0308001F91EF90DF90CF90089551
:10031200CF93DF930F92CDB7DEB7611571058105DB
:1003220031F19B01482FFB01849147FD8081877049
:100332009981987F892B8983F901949147FD908156
:100342009873877C892B8F7B8983F901949147FD70
:10035200908196FB992790F990FB87F98983BE01DA
:100362006F5F7F4F80E841E00E94AD0001C080E0F6
:080372000F90DF91CF91089577
:10037A00CF93DF930F92CDB7DEB761157105810573
:10038A0031F19B01482FFB01849147FD80818770E1
:10039A009981987F892B8983F901949147FD9081EE
:1003AA009873877C892B8F7B8983F901949147FD08
:1003BA00908196FB992790F990FB87F98983BE0172
:1003CA006F5F7F4F80E840E00E94AD0001C080E08F
:0803DA000F90DF91CF9108950F
:1003E200CF93DF930F92CDB7DEB76115710581050B
:1003F20029F19B01482FFB01849147FD8081877081
:100402009981987F892B8983F901949147FD908185
:100412009873877C892B8F7B8983F901949147FD9F
:10042200908196FB992790F990FB87F98983BE0109
:100432006F5F7F4F80E80E94240201C080E00F902E
:06044200DF91CF91089547
:10044800CF92DF92EF9261157105810581F06B0102
:10045800E82E0E945A00F6014491E7FC408147FBD0
:10046800442740F98E2DB6010E94AD0001C080E0FE
:08047800EF90DF90CF90089592
:1004800062E770E080E80E94F10161E770E080E8D7
:100490000E94F10160E770E080E80E94F101089598
:1004A000843060F4E82FF0E0EE0FFF1FE859FF4FB3
:1004B0000190F081E02D608381E0089580E008954F
:1004C000843060F4E82FF0E0EE0FFF1FE05AFF4F9A
:1004D0000190F081E02D608381E0089580E008952F
:1004E000EC010E9480020E947F02CE010E948102E4
:0604F000CE010E947D0216
:0404F6000C94000062
:0404FA000E94580004
:0204FE0008955F
:0205000008955C
:0205020008955A
:080504003B0038003500320015
:08050C003A0037003400310011
:0105140003E3
:010515000BDA
:0105160013D1
:00000001FF
